:03000000023B249C
:0C3B2400787FE4F6D8FD758121023B6B30
:103D1D00C2A58F807F017E00123D2ED2A77F057E2A
:013D2D000095
:103D2E00D3EF9400EE9400400F7DC77C01DCFEDDE6
:083D3E00FAEF1F70EB1E80E894
:013D4600225A
:0A3DBC00C2A7C2A6123D1DC2A72235
:0A3DC600C2A7D2A6123D1DC2A7221B
:103D6E007F38123DBC7F0C123DBC7F06123DBC7FDE
:093D7E0001123DBC7F80023DBC36
:103A5E000000000000000000000000000000000058
:103A6E000000000000000000000000000000000048
:103A7E000000000000000000000000000000000038
:103A8E000000000000000000000000000000000028
:103A9E000000000000000000000000000000000018
:103AAE000000000000000000000000000000000008
:103ABE0000000000000000000000000000000000F8
:103ACE0000000000000000000000000000000000E8
:103ADE0000000000000000000000000000000000D8
:103AEE0000000000000000000000000000000000C8
:103AFE0000000000000000000000000000000000B8
:103B0E0000000000000000000000000000000000A7
:063B1E00000000000000A1
:0B000300900025EBF0A3EAF0A3E9F069
:10000E00A312331F00000000123D8790002CEEF06B
:10001E00A3EFF0E49001C6F0A3F078C87C017D0157
:10002E007BFF7A3A795EFE7F63123271E490022B87
:10003E00F0A3F0A3F0A3F0782F7C027D017BFF7A72
:10004E003A79C1FE7F63123271E4900292F0A3F00E
:10005E00A312331F00000000E49001C8F090002CA2
:10006E00E07002A3E0700302289290002DE024FFBE
:10007E00F090002CE034FFF0900025E0FBA3E0FAB6
:10008E00A3E0F9123297FFD3648094B95008C3EFFE
:10009E00648094B05004EFB42E23900292E0FCA33F
:1000AE00E0242FF58274023CF583EFF0900293E08A
:1000BE0004F07006900292E004F002246D12329762
:1000CE00642B6003020C29900293E024FFF090024F
:1000DE0092E034FFF0E0FEA3E0FFBEFF06BFFF0399
:1000EE0002026F90002EEEF0A3EFF0900036123366
:1000FE001F3F80000090002EE0FEA3E0FFC3EE64E1
:10010E00809480500302021D742F2FF58274023EDC
:10011E00F583E0642E6058900294E0F8A3E0F9A312
:10012E00E0FAA3E0FBC000C001C002C00390002EA5
:10013E00A3E0242FF58274023EF583E0FF3395E0B1
:10014E00FEEF24D0FDEE34FFFCE4122F3590003686
:10015E00E0F8A3E0F9A3E0FAA3E0FB122D1DD00313
:10016E00D002D001D000122C2C9002941233139096
:10017E00002EE0FEA3E0FF242FF58274023EF583ED
:10018E00E0B42E5CC3900293E09FFF900292E09E3B
:10019E00900030F0A3EFF0D3900031E09400900087
:1001AE0030E064809480402E900294E0FCA3E0FD49
:1001BE00A3E0FEA3E0FFE4FBFA79207841122E269D
:1001CE00900294123313900031E024FFF09000302F
:1001DE00E034FFF080C190003612331F3DCCCCCD01
:1001EE0090002FE024FFF090002EE034FFF09000FE
:1001FE0036E0FCA3E0FDA3E0FEA3E0FFE4FBFA790A
:10020E00207841122D1D90003612331302010390F7
:10021E000294E0FCA3E0FDA3E0FEA3E0FFC004C057
:10022E0005C006C0079001C6E0FEA3E07802C33306
:10023E00CE33CED8F9243AF58274003EF583D0073A
:10024E00D006D005D0041233139001C7E004F0702D
:10025E00069001C6E004F090029412331F000000D5
:10026E0000E4900292F0A3F090022BE0FEA3E0FFD8
:10027E0024C8F58274013EF583E0FD700674C82F24
:10028E00020C1CED642B60030203599001C7E0249D
:10029E00FEF09001C6E034FFF0E0FEA3E07802C36A
:1002AE0033CE33CED8F9243EF58274003EF583E08A
:1002BE00FCA3E0FDA3E0FEA3E0FFC004C005C00662
:1002CE00C0079001C6E0FEA3E07802C333CE33CE62
:1002DE00D8F9243AF58274003EF583E0F8A3E0F9EC
:1002EE00A3E0FAA3E0FBD007D006D005D004122C71
:1002FE002C900032123313900032E0FCA3E0FDA3E9
:10030E00E0FEA3E0FFC004C005C006C0079001C612
:10031E00E0FEA3E07802C333CE33CED8F9243AF50B
:10032E008274003EF583D007D006D005D004123378
:10033E00139001C7E004F070069001C6E004F0903F
:10034E00022BE0FEA3E024C8020C1C90022BE0FE60
:10035E00A3E024C8F58274013EF583E0642D6003AA
:10036E000204319001C7E024FEF09001C6E034FF94
:10037E00F0E0FEA3E07802C333CE33CED8F9243EAC
:10038E00F58274003EF583E0F8A3E0F9A3E0FAA34A
:10039E00E0FBC000C001C002C0039001C6E0FEA396
:1003AE00E07802C333CE33CED8F9243AF582740006
:1003BE003EF583E0FCA3E0FDA3E0FEA3E0FFD00347
:1003CE00D002D001D000122C28900032123313909C
:1003DE000032E0FCA3E0FDA3E0FEA3E0FFC004C0FA
:1003EE0005C006C0079001C6E0FEA3E07802C33345
:1003FE00CE33CED8F9243AF58274003EF583D00779
:10040E00D006D005D0041233139001C7E004F0706B
:10041E00069001C6E004F090022BE0FEA3E024C893
:10042E00020C1C90022BE0FEA3E024C8F58274019E
:10043E003EF583E0642A60030206349001C7E0248F
:10044E00FEF09001C6E034FFF0E0FEA3E07802C3B8
:10045E0033CE33CED8F9243EF58274003EF583E0D8
:10046E00FCA3E0FDA3E0FEA3E0FFC004C005C006B0
:10047E00C0079001C6E0FEA3E07802C333CE33CEB0
:10048E00D8F9243AF58274003EF583E0F8A3E0F93A
:10049E00A3E0FAA3E0FBD007D006D005D004122DBE
:1004AE001D900032123313900032E0FCA3E0FDA346
:1004BE00E0FEA3E0FFC004C005C006C0079001C661
:1004CE00E0FEA3E07802C333CE33CED8F9243AF55A
:1004DE008274003EF583D007D006D005D0041233C7
:1004EE00139001C7E004F070069001C6E004F0908E
:1004FE00022BE0FEA3E024C7F58274013EF583E0F3
:10050E00FF642B6008EF642D600302062890022C16
:10051E00E024FFF090022BE034FFF09001C7E024BE
:10052E00FEF09001C6E034FFF090022BE0FEA3E057
:10053E0024C8F58274013EF583E024D3606824025A
:10054E00600302061A9001C6E0FEA3E07802C333F0
:10055E00CE33CED8F9243AF58274003EF583C083AB
:10056E00C082E0FCA3E0FDA3E0FEA3E0FFC004C058
:10057E0005C006C0079001C6E0FEA3E07802C333B3
:10058E00CE33CED8F9243EF58274003EF583E0F8E2
:10059E00A3E0F9A3E0FAA3E0FBD007D006D005D084
:1005AE0004122C2C805F9001C6E0FEA3E07802C3FB
:1005BE0033CE33CED8F9243AF58274003EF583C09B
:1005CE0083C082E0FCA3E0FDA3E0FEA3E0FFC00435
:1005DE00C005C006C0079001C6E0FEA3E07802C3C6
:1005EE0033CE33CED8F9243EF58274003EF583E047
:1005FE00F8A3E0F9A3E0FAA3E0FBD007D006D005FC
:10060E00D004122C28D082D0831233139001C7E06D
:10061E0004F070069001C6E004F090022BE0FEA3F9
:10062E00E024C8020C1C90022BE0FEA3E024C8F5C7
:10063E008274013EF583E0642F6003020848900146
:10064E00C7E024FEF09001C6E034FFF0E0FEA3E028
:10065E007802C333CE33CED8F9243EF58274003EF1
:10066E00F583E0F8A3E0F9A3E0FAA3E0FBC000C035
:10067E0001C002C0039001C6E0FEA3E07802C333BE
:10068E00CE33CED8F9243AF58274003EF583E0FCE1
:10069E00A3E0FDA3E0FEA3E0FFD003D002D001D083
:1006AE0000122E26900032123313900032E0FCA37B
:1006BE00E0FDA3E0FEA3E0FFC004C005C006C00736
:1006CE009001C6E0FEA3E07802C333CE33CED8F954
:1006DE00243AF58274003EF583D007D006D005D0BB
:1006EE00041233139001C7E004F070069001C6E0C7
:1006FE0004F090022BE0FEA3E0FF24FFEE34FFC3D4
:10070E0064809480500302083C74C72FF5827401F4
:10071E003EF583E0FF642B6008EF642D6003020852
:10072E003C90022CE024FFF090022BE034FFF0907E
:10073E0001C7E024FEF09001C6E034FFF090022BDA
:10074E00E0FEA3E024C8F58274013EF583E024D3D5
:10075E0060682402600302082E9001C6E0FEA3E04A
:10076E007802C333CE33CED8F9243AF58274003EE4
:10077E00F583C083C082E0FCA3E0FDA3E0FEA3E00E
:10078E00FFC004C005C006C0079001C6E0FEA3E08E
:10079E007802C333CE33CED8F9243EF58274003EB0
:1007AE00F583E0F8A3E0F9A3E0FAA3E0FBD007D0CD
:1007BE0006D005D004122C2C805F9001C6E0FEA35B
:1007CE00E07802C333CE33CED8F9243AF5827400E2
:1007DE003EF583C083C082E0FCA3E0FDA3E0FEA350
:1007EE00E0FFC004C005C006C0079001C6E0FEA32E
:1007FE00E07802C333CE33CED8F9243EF5827400AE
:10080E003EF583E0F8A3E0F9A3E0FAA3E0FBD007FE
:10081E00D006D005D004122C28D082D083123313E8
:10082E009001C7E004F070069001C6E004F090025B
:10083E002BE0FEA3E024C8020C1C90022BE0FEA3CA
:10084E00E0FF24C8F58274013EF583E0642860035E
:10085E00020C2690022DE07004A3E06401600302F6
:10086E000C05EF24FFEE34FFC36480948050030226
:10087E000BF090022CE024FFF090022BE034FFF0FE
:10088E009001C7E024FEF09001C6E034FFF0900224
:10089E002BE0FEA3E024C8F58274013EF583E0242C
:1008AE00D87003020A5A24FE700302099124FD60D7
:1008BE007024FE70030209F224046003020A76908B
:1008CE0001C6E0FEA3E07802C333CE33CED8F924BE
:1008DE003AF58274003EF583C083C082E0FCA3E04B
:1008EE00FDA3E0FEA3E0FFC004C005C006C0079054
:1008FE0001C6E0FEA3E07802C333CE33CED8F9248E
:10090E003EF58274003EF583E0F8A3E0F9A3E0FA29
:10091E00A3E0FBD007D006D005D004122C2C020A7F
:10092E00519001C6E0FEA3E07802C333CE33CED899
:10093E00F9243AF58274003EF583C083C082E0FC50
:10094E00A3E0FDA3E0FEA3E0FFC004C005C006C007
:10095E00079001C6E0FEA3E07802C333CE33CED8B3
:10096E00F9243EF58274003EF583E0F8A3E0F9A386
:10097E00E0FAA3E0FBD007D006D005D004122C2855
:10098E00020A519001C6E0FEA3E07802C333CE33D3
:10099E00CED8F9243AF58274003EF583C083C08226
:1009AE00E0FCA3E0FDA3E0FEA3E0FFC004C005C091
:1009BE0006C0079001C6E0FEA3E07802C333CE3333
:1009CE00CED8F9243EF58274003EF583E0F8A3E01C
:1009DE00F9A3E0FAA3E0FBD007D006D005D00412AD
:1009EE002D1D805F9001C6E0FEA3E07802C333CEDA
:1009FE0033CED8F9243AF58274003EF583C083C015
:100A0E0082E0FCA3E0FDA3E0FEA3E0FFC004C0056E
:100A1E00C006C0079001C6E0FEA3E07802C333CE45
:100A2E0033CED8F9243EF58274003EF583E0F8A368
:100A3E00E0F9A3E0FAA3E0FBD007D006D005D0047E
:100A4E00122E26D082D083123313801C90022CE0FB
:100A5E0004F0700690022BE004F09001C7E004F061
:100A6E0070069001C6E004F09001C7E004F0700635
:100A7E009001C6E004F090022BE0FEA3E0FF24C834
:100A8E00F58274013EF583742BF0E490022DF0A3F1
:100A9E00F0EF24FFEE34FFC3648094805003020B0A
:100AAE00ED90022BE0FEA3E024C7F58274013EF523
:100ABE0083E0FF642B6008EF642D6003020BDA9075
:100ACE00022CE024FFF090022BE034FFF09001C7DF
:100ADE00E024FEF09001C6E034FFF090022BE0FE21
:100AEE00A3E024C8F58274013EF583E024D3606848
:100AFE0024026003020BCC9001C6E0FEA3E0780254
:100B0E00C333CE33CED8F9243AF58274003EF58342
:100B1E00C083C082E0FCA3E0FDA3E0FEA3E0FFC023
:100B2E0004C005C006C0079001C6E0FEA3E078022F
:100B3E00C333CE33CED8F9243EF58274003EF5830E
:100B4E00E0F8A3E0F9A3E0FAA3E0FBD007D006D0CB
:100B5E0005D004122C2C805F9001C6E0FEA3E07835
:100B6E0002C333CE33CED8F9243AF58274003EF563
:100B7E0083C083C082E0FCA3E0FDA3E0FEA3E0FF00
:100B8E00C004C005C006C0079001C6E0FEA3E07811
:100B9E0002C333CE33CED8F9243EF58274003EF52F
:100BAE0083E0F8A3E0F9A3E0FAA3E0FBD007D006B8
:100BBE00D005D004122C28D082D08312331390018A
:100BCE00C7E004F070069001C6E004F090022BE03E
:100BDE00FEA3E024C8F58274013EF583742BF00267
:100BEE00246D90022BE0FEA3E024C8F58274013E32
:100BFE00F583742B02243E90022CE004F0700690D4
:100C0E00022BE004F090022BE0FEA3E024C8F58254
:100C1E0074013EF583742BF002246D900025E0FBE9
:100C2E00A3E0FAA3E0F9123297642D600302179243
:100C3E00900293E024FFF0900292E034FFF0E0FE89
:100C4E00A3E0FFBEFF06BFFF03020DD890002EEEFD
:100C5E00F0A3EFF090003612331F3F80000090009B
:100C6E002EE0FEA3E0FFC3EE648094805003020DDD
:100C7E0086742F2FF58274023EF583E0642E605841
:100C8E00900294E0F8A3E0F9A3E0FAA3E0FBC00021
:100C9E00C001C002C00390002EA3E0242FF5827481
:100CAE00023EF583E0FF3395E0FEEF24D0FDEE34F7
:100CBE00FFFCE4122F35900036E0F8A3E0F9A3E034
:100CCE00FAA3E0FB122D1DD003D002D001D00012EA
:100CDE002C2C90029412331390002EE0FEA3E0FF12
:100CEE00242FF58274023EF583E0B42E5CC390028D
:100CFE0093E09FFF900292E09E900030F0A3EFF001
:100D0E00D3900031E09400900030E06480948040F5
:100D1E002E900294E0FCA3E0FDA3E0FEA3E0FFE42E
:100D2E00FBFA79207841122E2690029412331390FA
:100D3E000031E024FFF0900030E034FFF080C190ED
:100D4E00003612331F3DCCCCCD90002FE024FFF0A7
:100D5E0090002EE034FFF0900036E0FCA3E0FDA3FF
:100D6E00E0FEA3E0FFE4FBFA79207841122D1D90FE
:100D7E000036123313020C6C900294E0FCA3E0FDDB
:100D8E00A3E0FEA3E0FFC004C005C006C0079001AB
:100D9E00C6E0FEA3E07802C333CE33CED8F9243AB0
:100DAE00F58274003EF583D007D006D005D004122C
:100DBE0033139001C7E004F070069001C6E004F012
:100DCE0090029412331F00000000E4900292F0A3F0
:100DDE00F090022BE0FEA3E0FF24C8F58274013EE2
:100DEE00F583E0FD700674C82F021785ED642B6045
:100DFE0003020EC29001C7E024FEF09001C6E0345B
:100E0E00FFF0E0FEA3E07802C333CE33CED8F92450
:100E1E003EF58274003EF583E0FCA3E0FDA3E0FE08
:100E2E00A3E0FFC004C005C006C0079001C6E0FEE7
:100E3E00A3E07802C333CE33CED8F9243AF58274C8
:100E4E00003EF583E0F8A3E0F9A3E0FAA3E0FBD0BF
:100E5E0007D006D005D004122C2C9000321233137A
:100E6E00900032E0FCA3E0FDA3E0FEA3E0FFC0048F
:100E7E00C005C006C0079001C6E0FEA3E07802C31D
:100E8E0033CE33CED8F9243AF58274003EF583D0B2
:100E9E0007D006D005D0041233139001C7E004F03A
:100EAE0070069001C6E004F090022BE0FEA3E02451
:100EBE00C802178590022BE0FEA3E024C8F58274C9
:100ECE00013EF583E0642D6003020F9A9001C7E0A6
:100EDE0024FEF09001C6E034FFF0E0FEA3E07802BD
:100EEE00C333CE33CED8F9243EF58274003EF5835B
:100EFE00E0F8A3E0F9A3E0FAA3E0FBC000C001C054
:100F0E0002C0039001C6E0FEA3E07802C333CE33E5
:100F1E00CED8F9243AF58274003EF583E0FCA3E0C6
:100F2E00FDA3E0FEA3E0FFD003D002D001D000125B
:100F3E002C28900032123313900032E0FCA3E0FD17
:100F4E00A3E0FEA3E0FFC004C005C006C0079001E9
:100F5E00C6E0FEA3E07802C333CE33CED8F9243AEE
:100F6E00F58274003EF583D007D006D005D004126A
:100F7E0033139001C7E004F070069001C6E004F050
:100F8E0090022BE0FEA3E024C802178590022BE00E
:100F9E00FEA3E024C8F58274013EF583E0642A6066
:100FAE000302119D9001C7E024FEF09001C6E034CB
:100FBE00FFF0E0FEA3E07802C333CE33CED8F9249F
:100FCE003EF58274003EF583E0FCA3E0FDA3E0FE57
:100FDE00A3E0FFC004C005C006C0079001C6E0FE36
:100FEE00A3E07802C333CE33CED8F9243AF5827417
:100FFE00003EF583E0F8A3E0F9A3E0FAA3E0FBD00E
:10100E0007D006D005D004122D1D900032123313D6
:10101E00900032E0FCA3E0FDA3E0FEA3E0FFC004DD
:10102E00C005C006C0079001C6E0FEA3E07802C36B
:10103E0033CE33CED8F9243AF58274003EF583D000
:10104E0007D006D005D0041233139001C7E004F088
:10105E0070069001C6E004F090022BE0FEA3E0249F
:10106E00C7F58274013EF583E0FF642B6008EF64E0
:10107E002D600302119190022CE024FFF090022BC0
:10108E00E034FFF09001C7E024FEF09001C6E0349A
:10109E00FFF090022BE0FEA3E024C8F58274013E1F
:1010AE00F583E024D360682402600302118390016B
:1010BE00C6E0FEA3E07802C333CE33CED8F9243A8D
:1010CE00F58274003EF583C083C082E0FCA3E0FD90
:1010DE00A3E0FEA3E0FFC004C005C006C007900158
:1010EE00C6E0FEA3E07802C333CE33CED8F9243E59
:1010FE00F58274003EF583E0F8A3E0F9A3E0FAA3CD
:10110E00E0FBD007D006D005D004122C2C805F90C7
:10111E0001C6E0FEA3E07802C333CE33CED8F92465
:10112E003AF58274003EF583C083C082E0FCA3E0F2
:10113E00FDA3E0FEA3E0FFC004C005C006C00790FB
:10114E0001C6E0FEA3E07802C333CE33CED8F92435
:10115E003EF58274003EF583E0F8A3E0F9A3E0FAD1
:10116E00A3E0FBD007D006D005D004122C28D082E5
:10117E00D0831233139001C7E004F070069001C6BD
:10118E00E004F090022BE0FEA3E024C80217859045
:10119E00022BE0FEA3E024C8F58274013EF583E045
:1011AE00642F60030213B19001C7E024FEF090019A
:1011BE00C6E034FFF0E0FEA3E07802C333CE33CEB8
:1011CE00D8F9243EF58274003EF583E0F8A3E0F9E9
:1011DE00A3E0FAA3E0FBC000C001C002C00390016F
:1011EE00C6E0FEA3E07802C333CE33CED8F9243A5C
:1011FE00F58274003EF583E0FCA3E0FDA3E0FEA3C0
:10120E00E0FFD003D002D001D000122E2690003283
:10121E00123313900032E0FCA3E0FDA3E0FEA3E046
:10122E00FFC004C005C006C0079001C6E0FEA3E0E3
:10123E007802C333CE33CED8F9243AF58274003E09
:10124E00F583D007D006D005D0041233139001C712
:10125E00E004F070069001C6E004F090022BE0FE70
:10126E00A3E0FF24FFEE34FFC3648094805003029A
:10127E0013A574C72FF58274013EF583E0FF642B2E
:10128E006008EF642D60030213A590022CE024FF8A
:10129E00F090022BE034FFF09001C7E024FEF090B6
:1012AE0001C6E034FFF090022BE0FEA3E024C8F567
:1012BE008274013EF583E024D36068240260030249
:1012CE0013979001C6E0FEA3E07802C333CE33CE6F
:1012DE00D8F9243AF58274003EF583C083C082E0CB
:1012EE00FCA3E0FDA3E0FEA3E0FFC004C005C00622
:1012FE00C0079001C6E0FEA3E07802C333CE33CE22
:10130E00D8F9243EF58274003EF583E0F8A3E0F9A7
:10131E00A3E0FAA3E0FBD007D006D005D004122C30
:10132E002C805F9001C6E0FEA3E07802C333CE337B
:10133E00CED8F9243AF58274003EF583C083C0827C
:10134E00E0FCA3E0FDA3E0FEA3E0FFC004C005C0E7
:10135E0006C0079001C6E0FEA3E07802C333CE3389
:10136E00CED8F9243EF58274003EF583E0F8A3E072
:10137E00F9A3E0FAA3E0FBD007D006D005D0041203
:10138E002C28D082D0831233139001C7E004F07062
:10139E00069001C6E004F090022BE0FEA3E024C804
:1013AE0002178590022BE0FEA3E0FF24C8F582749D
:1013BE00013EF583E06428600302178F90022DE052
:1013CE007004A3E06401600302176EEF24FFEE3495
:1013DE00FFC364809480500302160290022CE02416
:1013EE00FFF090022BE034FFF09001C7E024FEF0F6
:1013FE009001C6E034FFF090022BE0FEA3E024C87B
:10140E00F58274013EF583E024D870030215C324DF
:10141E00FE70030214FA24FD607024FE70030215A0
:10142E005B240460030215DF9001C6E0FEA3E078A2
:10143E0002C333CE33CED8F9243AF58274003EF58A
:10144E0083C083C082E0FCA3E0FDA3E0FEA3E0FF27
:10145E00C004C005C006C0079001C6E0FEA3E07838
:10146E0002C333CE33CED8F9243EF58274003EF556
:10147E0083E0F8A3E0F9A3E0FAA3E0FBD007D006DF
:10148E00D005D004122C2C0215BA9001C6E0FEA392
:10149E00E07802C333CE33CED8F9243AF582740005
:1014AE003EF583C083C082E0FCA3E0FDA3E0FEA373
:1014BE00E0FFC004C005C006C0079001C6E0FEA351
:1014CE00E07802C333CE33CED8F9243EF5827400D1
:1014DE003EF583E0F8A3E0F9A3E0FAA3E0FBD00722
:1014EE00D006D005D004122C280215BA9001C6E001
:1014FE00FEA3E07802C333CE33CED8F9243AF58278
:10150E0074003EF583C083C082E0FCA3E0FDA3E03F
:10151E00FEA3E0FFC004C005C006C0079001C6E0F0
:10152E00FEA3E07802C333CE33CED8F9243EF58243
:10153E0074003EF583E0F8A3E0F9A3E0FAA3E0FB24
:10154E00D007D006D005D004122D1D805F9001C6A5
:10155E00E0FEA3E07802C333CE33CED8F9243AF5B9
:10156E008274003EF583C083C082E0FCA3E0FDA33D
:10157E00E0FEA3E0FFC004C005C006C0079001C690
:10158E00E0FEA3E07802C333CE33CED8F9243EF585
:10159E008274003EF583E0F8A3E0F9A3E0FAA3E03D
:1015AE00FBD007D006D005D004122E26D082D083D1
:1015BE00123313801C90022CE004F0700690022B64
:1015CE00E004F09001C7E004F070069001C6E0045C
:1015DE00F09001C7E004F070069001C6E004F090B0
:1015EE00022BE0FEA3E024C8F58274013EF583745D
:1015FE002D02243E90022BE0FEA3E0FF24C8F582CC
:10160E0074013EF583742DF0E490022DF0A3F0EFFB
:10161E0024FFEE34FFC364809480500302176B9056
:10162E00022BE0FEA3E024C7F58274013EF583E0B1
:10163E00FF642B6008EF642D600302175890022C94
:10164E00E024FFF090022BE034FFF09001C7E0247D
:10165E00FEF09001C6E034FFF090022BE0FEA3E016
:10166E0024C8F58274013EF583E024D36068240219
:10167E00600302174A9001C6E0FEA3E07802C3336E
:10168E00CE33CED8F9243AF58274003EF583C0836A
:10169E00C082E0FCA3E0FDA3E0FEA3E0FFC004C017
:1016AE0005C006C0079001C6E0FEA3E07802C33372
:1016BE00CE33CED8F9243EF58274003EF583E0F8A1
:1016CE00A3E0F9A3E0FAA3E0FBD007D006D005D043
:1016DE0004122C2C805F9001C6E0FEA3E07802C3BA
:1016EE0033CE33CED8F9243AF58274003EF583C05A
:1016FE0083C082E0FCA3E0FDA3E0FEA3E0FFC004F4
:10170E00C005C006C0079001C6E0FEA3E07802C384
:10171E0033CE33CED8F9243EF58274003EF583E005
:10172E00F8A3E0F9A3E0FAA3E0FBD007D006D005BA
:10173E00D004122C28D082D0831233139001C7E02C
:10174E0004F070069001C6E004F090022BE0FEA3B8
:10175E00E024C8F58274013EF583742DF002246DE9
:10176E0090022CE004F0700690022BE004F0900240
:10177E002BE0FEA3E024C8F58274013EF583742DA0
:10178E00F002246D900025E0FBA3E0FAA3E0F9122D
:10179E003297642A6003021DFC900293E024FFF04E
:1017AE00900292E034FFF0E0FEA3E0FFBEFF06BF22
:1017BE00FF0302194190002EEEF0A3EFF0900036D9
:1017CE0012331F3F80000090002EE0FEA3E0FFC307
:1017DE00EE6480948050030218EF742F2FF58274FC
:1017EE00023EF583E0642E6058900294E0F8A3E088
:1017FE00F9A3E0FAA3E0FBC000C001C002C0039051
:10180E00002EA3E0242FF58274023EF583E0FF3311
:10181E0095E0FEEF24D0FDEE34FFFCE4122F359060
:10182E000036E0F8A3E0F9A3E0FAA3E0FB122D1DC9
:10183E00D003D002D001D000122C2C90029412337F
:10184E001390002EE0FEA3E0FF242FF58274023EDB
:10185E00F583E0B42E5CC3900293E09FFF9002925A
:10186E00E09E900030F0A3EFF0D3900031E09400B2
:10187E00900030E064809480402E900294E0FCA3AF
:10188E00E0FDA3E0FEA3E0FFE4FBFA79207841122D
:10189E002E26900294123313900031E024FFF09024
:1018AE000030E034FFF080C190003612331F3DCC83
:1018BE00CCCD90002FE024FFF090002EE034FFF00E
:1018CE00900036E0FCA3E0FDA3E0FEA3E0FFE4FB06
:1018DE00FA79207841122D1D90003612331302171B
:1018EE00D5900294E0FCA3E0FDA3E0FEA3E0FFC0D0
:1018FE0004C005C006C0079001C6E0FEA3E0780252
:10190E00C333CE33CED8F9243AF58274003EF58334
:10191E00D007D006D005D0041233139001C7E004CF
:10192E00F070069001C6E004F090029412331F008E
:10193E00000000E4900292F0A3F090022BE0FEA3D0
:10194E00E0FF24C8F58274013EF583E0FD70067455
:10195E00C82F021B49EDB42B1A90022CE004F07034
:10196E000690022BE004F090022BE0FEA3E024C8C8
:10197E00021B4990022BE0FEA3E024C8F5827401FD
:10198E003EF583E0FFB42D1F90022CE004F07006AC
:10199E0090022BE004F090022BE0FCA3E024C8F5AB
:1019AE008274013C021DF4EF642A6003021A7490E3
:1019BE0001C7E024FEF09001C6E034FFF0E0FEA384
:1019CE00E07802C333CE33CED8F9243EF5827400CC
:1019DE003EF583E0FCA3E0FDA3E0FEA3E0FFC00420
:1019EE00C005C006C0079001C6E0FEA3E07802C3A2
:1019FE0033CE33CED8F9243AF58274003EF583E027
:101A0E00F8A3E0F9A3E0FAA3E0FBD007D006D005D7
:101A1E00D004122D1D900032123313900032E0FCD0
:101A2E00A3E0FDA3E0FEA3E0FFC004C005C006C016
:101A3E00079001C6E0FEA3E07802C333CE33CED8C2
:101A4E00F9243AF58274003EF583D007D006D0050E
:101A5E00D0041233139001C7E004F070069001C653
:101A6E00E004F0021DF990022BE0FEA3E024C8F57D
:101A7E008274013EF583E0642F6003021B519001D6
:101A8E00C7E024FEF09001C6E034FFF0E0FEA3E0D4
:101A9E007802C333CE33CED8F9243EF58274003E9D
:101AAE00F583E0F8A3E0F9A3E0FAA3E0FBC000C0E1
:101ABE0001C002C0039001C6E0FEA3E07802C3336A
:101ACE00CE33CED8F9243AF58274003EF583E0FC8D
:101ADE00A3E0FDA3E0FEA3E0FFD003D002D001D02F
:101AEE0000122E26900032123313900032E0FCA327
:101AFE00E0FDA3E0FEA3E0FFC004C005C006C007E2
:101B0E009001C6E0FEA3E07802C333CE33CED8F9FF
:101B1E00243AF58274003EF583D007D006D005D066
:101B2E00041233139001C7E004F070069001C6E072
:101B3E0004F090022BE0FEA3E024C8F58274013E6F
:101B4E00021DF490022BE0FEA3E0FF24C8F5827480
:101B5E00013EF583E064286003021DF990022DE03A
:101B6E007004A3E064016003021DD8EF24FFEE347D
:101B7E00FFC3648094805003021DC390022BE0FECD
:101B8E00A3E024C7F58274013EF583E0FF642B7059
:101B9E0003021DC3EF642D7003021DC390022CE0DF
:101BAE0024FFF090022BE034FFF09001C7E024FEFA
:101BBE00F09001C6E034FFF090022BE0FEA3E0248B
:101BCE00C8F58274013EF583E024D87003021D84AB
:101BDE0024FE7003021CBB24FD607024FE70030201
:101BEE001D1C24046003021DA09001C6E0FEA3E0AC
:101BFE007802C333CE33CED8F9243AF58274003E40
:101C0E00F583C083C082E0FCA3E0FDA3E0FEA3E069
:101C1E00FFC004C005C006C0079001C6E0FEA3E0E9
:101C2E007802C333CE33CED8F9243EF58274003E0B
:101C3E00F583E0F8A3E0F9A3E0FAA3E0FBD007D028
:101C4E0006D005D004122C2C021D7B9001C6E0FE9E
:101C5E00A3E07802C333CE33CED8F9243AF582749A
:101C6E00003EF583C083C082E0FCA3E0FDA3E0FE4E
:101C7E00A3E0FFC004C005C006C0079001C6E0FE89
:101C8E00A3E07802C333CE33CED8F9243EF5827466
:101C9E00003EF583E0F8A3E0F9A3E0FAA3E0FBD061
:101CAE0007D006D005D004122C28021D7B9001C649
:101CBE00E0FEA3E07802C333CE33CED8F9243AF552
:101CCE008274003EF583C083C082E0FCA3E0FDA3D6
:101CDE00E0FEA3E0FFC004C005C006C0079001C629
:101CEE00E0FEA3E07802C333CE33CED8F9243EF51E
:101CFE008274003EF583E0F8A3E0F9A3E0FAA3E0D6
:101D0E00FBD007D006D005D004122D1D805F9001A8
:101D1E00C6E0FEA3E07802C333CE33CED8F9243A20
:101D2E00F58274003EF583C083C082E0FCA3E0FD23
:101D3E00A3E0FEA3E0FFC004C005C006C0079001EB
:101D4E00C6E0FEA3E07802C333CE33CED8F9243EEC
:101D5E00F58274003EF583E0F8A3E0F9A3E0FAA360
:101D6E00E0FBD007D006D005D004122E26D082D0AC
:101D7E0083123313801C90022CE004F07006900244
:101D8E002BE004F09001C7E004F070069001C6E06D
:101D9E0004F09001C7E004F070069001C6E004F074
:101DAE0090022BE0FEA3E024C8F58274013EF58379
:101DBE00742A02243E90022BE0FEA3E024C8F58292
:101DCE0074013EF583742A02243E90022CE004F046
:101DDE00700690022BE004F090022BE0FEA3E024AC
:101DEE00C8F58274013EF583742AF002246D9000CA
:101DFE0025E0FBA3E0FAA3E0F9123297642F60030B
:101E0E00022474900293E024FFF0900292E034FFDB
:101E1E00F0E0FEA3E0FFBEFF06BFFF03021FAB9084
:101E2E00002EEEF0A3EFF090003612331F3F80002D
:101E3E000090002EE0FEA3E0FFC3EE64809480507D
:101E4E0003021F59742F2FF58274023EF583E0644E
:101E5E002E6058900294E0F8A3E0F9A3E0FAA3E014
:101E6E00FBC000C001C002C00390002EA3E0242FCF
:101E7E00F58274023EF583E0FF3395E0FEEF24D049
:101E8E00FDEE34FFFCE4122F35900036E0F8A3E0AF
:101E9E00F9A3E0FAA3E0FB122D1DD003D002D0016E
:101EAE00D000122C2C90029412331390002EE0FED0
:101EBE00A3E0FF242FF58274023EF583E0B42E5C7E
:101ECE00C3900293E09FFF900292E09E900030F04C
:101EDE00A3EFF0D3900031E09400900030E06480E6
:101EEE009480402E900294E0FCA3E0FDA3E0FEA3BC
:101EFE00E0FFE4FBFA79207841122E26900294122C
:101F0E003313900031E024FFF0900030E034FFF006
:101F1E0080C190003612331F3DCCCCCD90002FE007
:101F2E0024FFF090002EE034FFF0900036E0FCA38A
:101F3E00E0FDA3E0FEA3E0FFE4FBFA792078411276
:101F4E002D1D900036123313021E3F900294E0FCBA
:101F5E00A3E0FDA3E0FEA3E0FFC004C005C006C0E1
:101F6E00079001C6E0FEA3E07802C333CE33CED88D
:101F7E00F9243AF58274003EF583D007D006D005D9
:101F8E00D0041233139001C7E004F070069001C61E
:101F9E00E004F090029412331F00000000E490025F
:101FAE0092F0A3F090022BE0FEA3E0FF24C8F5828E
:101FBE0074013EF583E0FD700674C82F0220E4ED37
:101FCE00B42B1A90022CE004F0700690022BE00461
:101FDE00F090022BE0FEA3E024C80220E490022B36
:101FEE00E0FEA3E024C8F58274013EF583E0FFB461
:101FFE002D1F90022CE004F0700690022BE004F0EE
:10200E0090022BE0FCA3E024C8F58274013C02246C
:10201E0068EF642A60030220EC9001C7E024FEF012
:10202E009001C6E034FFF0E0FEA3E07802C333CEA9
:10203E0033CED8F9243EF58274003EF583E0FCA33E
:10204E00E0FDA3E0FEA3E0FFC004C005C006C0078C
:10205E009001C6E0FEA3E07802C333CE33CED8F9AA
:10206E00243AF58274003EF583E0F8A3E0F9A3E08C
:10207E00FAA3E0FBD007D006D005D004122D1D9098
:10208E000032123313900032E0FCA3E0FDA3E0FE19
:10209E00A3E0FFC004C005C006C0079001C6E0FE65
:1020AE00A3E07802C333CE33CED8F9243AF5827446
:1020BE00003EF583D007D006D005D004123313901E
:1020CE0001C7E004F070069001C6E004F090022B08
:1020DE00E0FEA3E024C8F58274013E02246890025B
:1020EE002BE0FEA3E024C8F58274013EF583E06484
:1020FE002F60030221BB9001C7E024FEF09001C6C1
:10210E00E034FFF0E0FEA3E07802C333CE33CED846
:10211E00F9243EF58274003EF583E0F8A3E0F9A3BE
:10212E00E0FAA3E0FBC000C001C002C0039001C6EC
:10213E00E0FEA3E07802C333CE33CED8F9243AF5CD
:10214E008274003EF583E0FCA3E0FDA3E0FEA3E075
:10215E00FFD003D002D001D000122E2690003212F2
:10216E003313900032E0FCA3E0FDA3E0FEA3E0FFFA
:10217E00C004C005C006C0079001C6E0FEA3E0780B
:10218E0002C333CE33CED8F9243AF58274003EF52D
:10219E0083D007D006D005D0041233139001C7E0C8
:1021AE0004F070069001C6E004F002246D90022B3C
:1021BE00E0FEA3E0FF24C8F58274013EF583E064DF
:1021CE0028600302246D90022DE07004A3E06401E8
:1021DE00600302244CEF24FFEE34FFC3648094802E
:1021EE00500302242C90022BE0FEA3E024C7F582BC
:1021FE0074013EF583E0FF642B700302242CEF6420
:10220E002D700302242C90022CE024FFF090022B60
:10221E00E034FFF09001C7E024FEF09001C6E034F8
:10222E00FFF090022BE0FEA3E024C8F58274013E7D
:10223E00F583E024D870030223EE24FE70030223FC
:10224E002524FD607024FE7003022386240460039F
:10225E0002240A9001C6E0FEA3E07802C333CE3317
:10226E00CED8F9243AF58274003EF583C083C0823D
:10227E00E0FCA3E0FDA3E0FEA3E0FFC004C005C0A8
:10228E0006C0079001C6E0FEA3E07802C333CE334A
:10229E00CED8F9243EF58274003EF583E0F8A3E033
:1022AE00F9A3E0FAA3E0FBD007D006D005D00412C4
:1022BE002C2C0223E59001C6E0FEA3E07802C33386
:1022CE00CE33CED8F9243AF58274003EF583C0831E
:1022DE00C082E0FCA3E0FDA3E0FEA3E0FFC004C0CB
:1022EE0005C006C0079001C6E0FEA3E07802C33326
:1022FE00CE33CED8F9243EF58274003EF583E0F855
:10230E00A3E0F9A3E0FAA3E0FBD007D006D005D0F6
:10231E0004122C280223E59001C6E0FEA3E0780209
:10232E00C333CE33CED8F9243AF58274003EF5830A
:10233E00C083C082E0FCA3E0FDA3E0FEA3E0FFC0EB
:10234E0004C005C006C0079001C6E0FEA3E07802F7
:10235E00C333CE33CED8F9243EF58274003EF583D6
:10236E00E0F8A3E0F9A3E0FAA3E0FBD007D006D093
:10237E0005D004122D1D805F9001C6E0FEA3E0780B
:10238E0002C333CE33CED8F9243AF58274003EF52B
:10239E0083C083C082E0FCA3E0FDA3E0FEA3E0FFC8
:1023AE00C004C005C006C0079001C6E0FEA3E078D9
:1023BE0002C333CE33CED8F9243EF58274003EF5F7
:1023CE0083E0F8A3E0F9A3E0FAA3E0FBD007D00680
:1023DE00D005D004122E26D082D083123313801C47
:1023EE0090022CE004F0700690022BE004F09001B5
:1023FE00C7E004F070069001C6E004F09001C7E05B
:10240E0004F070069001C6E004F090022BE0FEA3EB
:10241E00E024C8F58274013EF583742F8012900279
:10242E002BE0FEA3E024C8F58274013EF583742FE1
:10243E00F0E490022DF0A3F090002602288990027D
:10244E002CE004F0700690022BE004F090022BE0DA
:10245E00FEA3E024C8F58274013EF583742FF0903C
:10246E000026E4022889900025E0FBA3E0FAA3E011
:10247E00F9123297FF6428706490022BE0FCA3E0FF
:10248E00FD4C70319001C8E0FE642B6028EE642D87
:10249E006023EE642A601EEE642F6019EE642860DD
:1024AE001474C82DF58274013CF5837428F09000E5
:1024BE0026E402288990022CE004F0700690022B8C
:1024CE00E004F090022BE0FCA3E024C8F582740136
:1024DE003CF5837428F0900026E4022889EF6429E5
:1024EE006003022885900293E024FFF0900292E0B0
:1024FE0034FFF0E0FFA3E090002ECFF0A3EFF090BA
:10250E00003612331F3F80000090002EE0FEA3E045
:10251E00FFC3EE648094805003022631742F2FF592
:10252E008274023EF583E0642E6058900294E0F8C7
:10253E00A3E0F9A3E0FAA3E0FBC000C001C002C013
:10254E000390002EA3E0242FF58274023EF583E063
:10255E00FF3395E0FEEF24D0FDEE34FFFCE4122FA6
:10256E0035900036E0F8A3E0F9A3E0FAA3E0FB1201
:10257E002D1DD003D002D001D000122C2C9002942D
:10258E0012331390002EE0FEA3E0FF242FF5827489
:10259E00023EF583E0B42E5CC3900293E09FFF9061
:1025AE000292E09E900030F0A3EFF0D3900031E065
:1025BE009400900030E064809480402E900294E06D
:1025CE00FCA3E0FDA3E0FEA3E0FFE4FBFA79207894
:1025DE0041122E26900294123313900031E024FF04
:1025EE00F0900030E034FFF080C190003612331FBF
:1025FE003DCCCCCD90002FE024FFF090002EE034A7
:10260E00FFF0900036E0FCA3E0FDA3E0FEA3E0FFA8
:10261E00E4FBFA79207841122D1D90003612331307
:10262E00022517900294E0FCA3E0FDA3E0FEA3E0D8
:10263E00FFC004C005C006C0079001C6E0FEA3E0BF
:10264E007802C333CE33CED8F9243AF58274003EE5
:10265E00F583D007D006D005D0041233139001C7EE
:10266E00E004F070069001C6E004F090029412337C
:10267E001F00000000E4900292F0A3F09001C7E06A
:10268E0024FEF09001C6E034FFF090022BE0FEA392
:10269E00E024C8F58274013EF583E024D67003026F
:1026AE00278624FD607024FE70030227E724046051
:1026BE000302284D9001C6E0FEA3E07802C333CE9C
:1026CE0033CED8F9243AF58274003EF583C083C028
:1026DE0082E0FCA3E0FDA3E0FEA3E0FFC004C00582
:1026EE00C006C0079001C6E0FEA3E07802C333CE59
:1026FE0033CED8F9243EF58274003EF583E0F8A37C
:10270E00E0F9A3E0FAA3E0FBD007D006D005D00491
:10271E00122C2C0228469001C6E0FEA3E07802C3DC
:10272E0033CE33CED8F9243AF58274003EF583C009
:10273E0083C082E0FCA3E0FDA3E0FEA3E0FFC004A3
:10274E00C005C006C0079001C6E0FEA3E07802C334
:10275E0033CE33CED8F9243EF58274003EF583E0B5
:10276E00F8A3E0F9A3E0FAA3E0FBD007D006D0056A
:10277E00D004122C280228469001C6E0FEA3E07871
:10278E0002C333CE33CED8F9243AF58274003EF527
:10279E0083C083C082E0FCA3E0FDA3E0FEA3E0FFC4
:1027AE00C004C005C006C0079001C6E0FEA3E078D5
:1027BE0002C333CE33CED8F9243EF58274003EF5F3
:1027CE0083E0F8A3E0F9A3E0FAA3E0FBD007D0067C
:1027DE00D005D004122D1D805F9001C6E0FEA3E04F
:1027EE007802C333CE33CED8F9243AF58274003E44
:1027FE00F583C083C082E0FCA3E0FDA3E0FEA3E06E
:10280E00FFC004C005C006C0079001C6E0FEA3E0ED
:10281E007802C333CE33CED8F9243EF58274003E0F
:10282E00F583E0F8A3E0F9A3E0FAA3E0FBD007D02C
:10283E0006D005D004122E26D082D08312331390E8
:10284E0001C7E004F070069001C6E004F090022C7F
:10285E00E024FFF090022BE034FFF0E0FEA3E02432
:10286E00C8F58274013EF583E06428600302268A6F
:10287E0090022DF0A304F0900026E475F0011232C0
:10288E00EF02006B900293E024FFF0900292E0348E
:10289E00FFF0E0FFA3E090002ECFF0A3EFF090004A
:1028AE003612331F3F80000090002EE0FEA3E0FFA3
:1028BE00C3EE6480948050030229D0742F2FF582CA
:1028CE0074023EF583E0642E6058900294E0F8A303
:1028DE00E0F9A3E0FAA3E0FBC000C001C002C00310
:1028EE0090002EA3E0242FF58274023EF583E0FFC4
:1028FE003395E0FEEF24D0FDEE34FFFCE4122F35CD
:10290E00900036E0F8A3E0F9A3E0FAA3E0FB122D65
:10291E001DD003D002D001D000122C2C90029412A4
:10292E00331390002EE0FEA3E0FF242FF5827402F5
:10293E003EF583E0B42E5CC3900293E09FFF9002BD
:10294E0092E09E900030F0A3EFF0D3900031E0942F
:10295E0000900030E064809480402E900294E0FC61
:10296E00A3E0FDA3E0FEA3E0FFE4FBFA79207841AB
:10297E00122E26900294123313900031E024FFF0B1
:10298E00900030E034FFF080C190003612331F3DCE
:10299E00CCCCCD90002FE024FFF090002EE034FF41
:1029AE00F0900036E0FCA3E0FDA3E0FEA3E0FFE420
:1029BE00FBFA79207841122D1D9000361233130246
:1029CE0028B6900294E0FCA3E0FDA3E0FEA3E0FF96
:1029DE00C004C005C006C0079001C6E0FEA3E078A3
:1029EE0002C333CE33CED8F9243AF58274003EF5C5
:1029FE0083D007D006D005D0041233139001C7E060
:102A0E0004F070069001C6E004F090029412331F99
:102A1E0000000000E4900292F0A3F090022BE0FF81
:102A2E00A3E090002ECFF0A3EFF090002EE0FEA3D7
:102A3E00E0FF24C8F58274013EF583E024D67003CE
:102A4E00022B2124FD606A24FE7003022B822404D3
:102A5E006003022BE8EF7802C333CE33CED8F924CD
:102A6E003AF58274003EF583C083C082E0FCA3E099
:102A7E00FDA3E0FEA3E0FFC004C005C006C00790A2
:102A8E00002EE0FEA3E07802C333CE33CED8F92475
:102A9E003EF58274003EF583E0F8A3E0F9A3E0FA78
:102AAE00A3E0FBD007D006D005D004122C2C022BAD
:102ABE00E190002EE0FEA3E07802C333CE33CED8F1
:102ACE00F9243AF58274003EF583C083C082E0FC9F
:102ADE00A3E0FDA3E0FEA3E0FFC004C005C006C056
:102AEE000790002EE0FEA3E07802C333CE33CED89B
:102AFE00F9243EF58274003EF583E0F8A3E0F9A3D5
:102B0E00E0FAA3E0FBD007D006D005D004122C28A3
:102B1E00022BE190002EE0FEA3E07802C333CE3309
:102B2E00CED8F9243AF58274003EF583C083C08274
:102B3E00E0FCA3E0FDA3E0FEA3E0FFC004C005C0DF
:102B4E0006C00790002EE0FEA3E07802C333CE331A
:102B5E00CED8F9243EF58274003EF583E0F8A3E06A
:102B6E00F9A3E0FAA3E0FBD007D006D005D00412FB
:102B7E002D1D805F90002EE0FEA3E07802C333CEC1
:102B8E0033CED8F9243AF58274003EF583C083C063
:102B9E0082E0FCA3E0FDA3E0FEA3E0FFC004C005BD
:102BAE00C006C00790002EE0FEA3E07802C333CE2D
:102BBE0033CED8F9243EF58274003EF583E0F8A3B7
:102BCE00E0F9A3E0FAA3E0FBD007D006D005D004CD
:102BDE00122E26D082D08312331390002FE024FFC2
:102BEE00F090002EE034FFF0E0F47003A3E0F46008
:102BFE0003022A3890003AE0FCA3E0FDA3E0FEA316
:102C0E00E0FF900028123313900028E0FCA3E0FDB3
:062C1E00A3E0FEA3E0FFAD
:012C2400228D
:103CAA00252E306600252E3666003738392F3435F2
:103CBA00362A3132332D2830292B204343204361C1
:103CCA006C63756C61746F72202020202020576508
:0A3CDA006C636F6D65202020202030
:103CE4005E029A00000000000000000000000000D6
:103CF40000000000000000000000000000000000C0
:103D040000410299005002B80000000000000000C9
:083D14000000000000000000A7
:043DAD007FE87E032A
:0B3DB100EF1FAC0670011E4C70F622E4
:103D9C007FA77E277D98DDFEDEFADFF67F01DFFE52
:013DAC0022F4
:053DD0007F18023DBC5C
:053DD5007F1C023DBC53
:073BB000F07B017A02799A13
:0B3BB700900025EBF0A3EAF0A3E9F07A
:103BC2007F80123DBCE4900028F0900025E0FBA32A
:103BD200E0FAA3E0F9123D87900028E0C39FEE646B
:103BE20080F87480985021900025E0FBA3E0FAA3AE
:103BF200E0F9A3E0F5827583001232B0FF123DC6F0
:083C0200900028E004F080C2EC
:013C0A002297
:0B3C0B00900025EBF0A3EAF0A3E9F025
:103C16007FC0123DBCE4900028F0900025E0FBA395
:103C2600E0FAA3E0F9123D87900028E0C39FEE6416
:103C360080F87480985021900025E0FBA3E0FAA359
:103C4600E0F9A3E0F5827583001232B0FF123DC69B
:083C5600900028E004F080C298
:013C5E002243
:10398800E4900020F0A3F075900FE590640F7003A9
:10399800023A5D123DADE590640F7003023A5DAFE7
:1039A80090EF24F5601224FE601614601B24077043
:1039B8001DE4900298F080169002987401F0800E31
:1039C8009002987402F080069002987403F0759043
:1039D800F0AF90EF2450601324E0601824F0601DCD
:1039E80024707020900298E0F08019900298E024EA
:1039F80004F08010900298E02408F0800790029864
:103A0800E0240CF0900298E0903CB493FF90029967
:103A1800E0249AF582E43402F583EFF0900299E00D
:103A280004F07B017A02799A123D87D3EF9410EE65
:103A3800648094804003123DD0123BB1900020E096
:103A4800C3648094B2500EE59064F06008123DADF6
:053A5800E004F080E72E
:013A5D002246
:10384500E4900024F030B0030238D6123DAD20B02C
:10385500787B017A02799A120003900020123313C3
:10386500900020E0FCA3E0FDA3E0FEA3E0FF122F03
:103875006EAD07AC06EC122F35900020E0F8A3E002
:10388500F9A3E0FAA3E0FB122EC37BFF70067A3C96
:1038950079AA80047A3C79AF900028EBF0A3EAF08E
:1038A500A3E9F0900020E0FCA3E0FDA3E0FEA3E087
:1038B500FF90002B1233137B017A0279B81234275B
:1038C5007B017A0279B8123C0B30B003023987804C
:1038D500F820B123123DAD20B115900299E004F016
:1038E500E02499F582E43402F583742E123BB0305E
:1038F500B10302398780F820B332123DAD20B327DA
:10390500900299E02499F582E43402F5837420123B
:103915003BB0900299E02499F582E43402F583E402
:10392500F0900299E014F020B35880FB20B23312D6
:103935003DAD20B2287F01123DBC7E007F1E7D007B
:103945007B017A02799A1233967E007F107D007B87
:10395500017A0279B8123396E4900299F020B222E6
:1039650080FB20B40E123DAD20B403123DD520B42A
:103975001180FB20B50C123DAD20B503123DD030B2
:02398500B5FD8E
:01398700221D
:103C5F0078007C007D017BFF7A3C79C47E007F1069
:103C6F0012327178107C007D017BFF7A3C79D47E13
:103C7F00007F10123271123D6E7B017A00790012B3
:103C8F003BB77B017A007910123C0B123D9C7F01F0
:0B3C9F00123DBC12398812384580F835
:102C2500022FDAE86480F8E933E83360110460F0D4
:102C3500ED33EC337009E8FCE9FDEAFEEBFF220415
:102C450060DED3EB9FEA9EE99DE8C2E78CF0C2F710
:102C550095F0400CE8CCF8E9CDF9EACEFAEBCFFBDC
:102C6500122FA585D0F05804700320D5B3E8047061
:102C7500075002B2D5022FE492D5EC0460F7E4CCFC
:102C8500C0E0C398F8603B94186008400DD0E0FBA5
:102C9500022FBCE4FBFAC9FC8028E830E406E4C94D
:102CA500FBE4CAFCE830E305E4C9CACBFCE85407F9
:102CB5006010F8C3E913F9EA13FAEB13FBEC13FC04
:102CC500D8F130F52FC3E49CFCEF9BFFEE9AFEEDA7
:102CD50099FDD0E0FBEF4E4D4C701222DB03022F25
:102CE500E1EC2CFCEF33FFEE33FEED33FDED30E789
:102CF500EB022FBCEF2BFFEE3AFEED39FDD0E0FBEA
:102D050050130BBB0003022FE4ED13FDEE13FEEF92
:082D150013FFEC13FC022FBCBC
:102D1D00EC4D6011E8497017ED33EC3304600DE4B0
:102D2D00FCFFFEFD22E933E8330470F8022FDA12BE
:102D3D002FA558046009E4CC2481500628500902BF
:102D4D002FE4284003022FE1C0E0EB4A7044B98024
:102D5D0006D0E0FB022FD0EF4E701CBD8008EBFFBC
:102D6D00EAFEE9FD80EBE98DF0A4FEE5F0022E060A
:102D7D00E9CDF9EAFEEBFFEF89F0A4FCE5F0CE8991
:102D8D00F0A42EFFE435F0CD89F0A42DFEE435F04E
:102D9D008067EF4E7005BD80D780C3EF8BF0A4AC7C
:102DAD00F0EE8BF0A42CFCE435F0F8EF8AF0A42CB7
:102DBD00E5F038FCE433CB8DF0A42CFCE5F03BF8CA
:102DCD00EE8AF0A42CFCE5F038F8E433CF89F0A4BA
:102DDD002CFCE5F038CF3400CE89F0A42FFFE5F0C0
:102DED003EFEE433C98DF0A42EFEE5F039CD8AF018
:102DFD00A42FFFE5F03EFEE43DFD33D0E0FB500790
:102E0D000BBB000F022FE4EC2CFCEF33FFEE33FE77
:062E1D00ED33FD022FBCA5
:102E2300022FE4EC5D046005E859047003022FDA15
:102E3300122FA5580460F6EC4860F2EC7004FDFE16
:102E4300FF22C860DB2481C85009C3986002500682
:102E5300022FE19850CAF582E9294B4A7005AB82EB
:102E6300022FD075F0007C1A7880C3EF9BEE9AEDA9
:102E730099400DC3EF9BFFEE9AFEED99FDE842F0FA
:102E8300DC23ACF0D0E0FFD0E0FED0E0FDAB82204D
:102E9300E7101BEB60BAEC2CFCEF33FFEE33FEEDD7
:102EA30033FD022FBCE803F830E705C0F075F000EE
:102EB300EF2FFFEE33FEED33FD40B830E7C280AABB
:102EC30074F8CC6480CCC86480C8F582046043C3C2
:102ED300EB9FF5F0EA9E42F0E99D42F0E89C45F055
:102EE30060305018E5825FFFE582F42B5582FB507A
:102EF300210ABA001D09B90019088016E5825BFB97
:102F0300E582F42F5582FF50090EBE00050DBD006A
:102F1300010CC3EB9FF5F0EA9E42F0E99D42F0E815
:0D2F23009C45F06007CC4820E701B3EC228C
:102F300075F020800E75F010800575F0087D007E1C
:102F4000007F003392D530D503123305EC334010A7
:102F5000EF33FFEE33FEED33FDEC33FCD5F0ED2225
:0E2F6000E5F0247EA2D513CC92E7CDCEFF2261
:102F6E00EDD2E7CD33EC3392D524814006E4FFFE5B
:102F7E00FDFC22FCE4CFCECDCC24E0501174FF80BA
:102F8E00EDC3CC13CCCD13CDCE13CECF13CF047057
:072F9E00F030D5DE0233051F
:1033C200E5082428F582E43400F583E0050822901C
:1033D2000025300703900028E475F00112335002F3
:1033E20032972000E97F2ED2008018EF540F2490EC
:1033F200D43440D4FF30040BEF24BFB41A0050037E
:103402002461FFE50960021509050CE50C7002054F
:103412000B30070E900025E475F001123350EF02D5
:1034220032DD023D477403D2078003E4C207F50888
:10343200900025123367E4F509F50BF50CE50960F8
:10344200077F2012340580F5750AFFC201C200C24F
:1034520002C203C205C206C2081233D1FF700D3088
:1034620007057F00123416AF0CAE0B22B4255FC2E3
:10347200D5C2041233D1FF24D0B40A00501A75F019
:103482000A780930D50508B6FF0106C6A426F6203B
:10349200D5047002D20380D924CFB41A00EF5004AD
:1034A200C2E5D204023708D20180C6D20080C0D25F
:1034B2000280BCD2D580BAD20580B47F20123405F6
:1034C2002002077401B5090040F11233C2FF123421
:1034D2000502343FD208D20680951233C2FB123362
:1034E200C2FA1233C2F94A4B700679067A387BFF68
:1034F20020022EE509602A7E008E82758300123238
:10350200B060060EEE650A70F0C2D5EBC0E0EAC00C
:10351200E0E9C0E0EE123769D0E0F9D0E0FAD0E09D
:10352200FB123297FF60AAEBC0E0EAC0E0E9C0E01C
:10353200123405D0E02401F9D0E03400FAD0E0FBE7
:10354200E50A0460DCD50AD98087D20280A212374C
:103552004B60F7E50A700104122FEFA90A600DE52E
:103562000A600914F50A1237F3EF60F3EA30E70252
:10357200F404C3995079EAF4250A0430E701E4041B
:10358200F50A800D12374B60C1EA050A250A122F8F
:10359200EFEA900054F030E701E4250A04D50A046A
:1035A20020050114123769E4C0E01237F390005489
:1035B200E0601320E70714F01233ED802204F0D00C
:1035C200E014C0E07F001233EDE50A60071233E435
:1035D200150A800B3005031233E4D0E002343FD0E9
:1035E200E00480C412374B609EE50A04122FEF906C
:1035F2000054EAF0E50A20050260010424041237AF
:01360200695E
:1036030074FF04C0E01237F31233EDE50A2005021C
:1036130060031233E4D0E0B50AE87F451233F79034
:103623000054E07F2B30E7047F2DF404C0E0123414
:1036330005D0E075F00A84C0F01233EED0E0123307
:10364300EE02343F791080027908C206C20880086E
:10365300D2D5790A8004790AC2D5E50A047002F545
:103663000AE4FAFDFEFF1233C2FC7B0820011312A9
:1036730033C2FD7B1030000A1233C2FE1233C2FF85
:103683007B20EC3382D592D55013C3E43000069FE0
:10369300FFE49EFEE42001039DFDE49CFCE4CBF8E3
:1036A300C201EC700CCFCECDCCE824F8F870F380D7
:1036B30017C3EF33FFEE33FEED33FDEC33FCEB3397
:1036C300FB994002FB0FD8E9EB300105F8D0E0C4C9
:1036D30048B201C0E00AEC4D4E4F78207B0070C227
:1036E300EAB50A0040BCC0E012376BD0F0D0E0204E
:1036F3000104C4C0E0C4B201C0F01233EED0F0D56F
:10370300F0EB02343F12337034DC5336475834AD98
:103713004C34A942364B4F36534436534934C24393
:1037230036595535864635E64535504738265034A3
:10373300B12D34B52E34D82B34B92334D620380FD9
:103743002A347148000034D0E50AB4FF03750A0631
:103753001233C2FC1233C2FD1233C2FE1233C2FF54
:1037630090004D02302C790AA2D5200314300509AC
:10377300B910020404B9080104A2D52006025001BD
:10378300042002689202B509005034C0E07F203063
:1037930003197F30A20272067205500F1237C2C29C
:1037A30002C206C205C2087F30800F300503E9C09C
:1037B300E0123405300503D0E0F9D0E0B509CC3090
:1037C30005177F30B9100C1234057F583004077F7A
:1037D300788003B908031234053002057F2D0234C3
:1037E300057F202008F87F2B2006F322920280CF4A
:1037F3007F00B40700500B244DF582E43400F583B9
:10380300E0FF22286E756C6C2900D2011233C2309E
:1038130001F8C201780930D50108F60234712D5040
:103823004349581233C22403B405004001E49038DD
:1038330021931233F6743A1233F6D2037509040254
:02384300364706
:102FA500E9D2E7C933E833F892D5EDD2E7CD33EC72
:072FB50033FC5002B2D522EB
:102FBC00EC30E7100FBF000C0EBE00080DBD000476
:102FCC000BEB6014A2D5EB13FCED92E7FD2274FF22
:102FDC00FCFDFEFF22E480F8A2D574FF13FC7D807B
:032FEC00E480EF8F
:102FEF00F920E73624F950037907E4F42402FBE5CE
:102FFF0082158270021583DBF6E024FB501BE9601B
:10300F0014E4F0E582158270021583E004F0B40A2F
:0D301F0008E4F0D9EE7401F00A22C2D522B7
:10302C00ED33EC3392D5FA602AB4FF33EDC2E77B73
:10303C00FF60067A307951E4227A30795A20D5042F
:10304C007A307955224E614E002B494E46002D495F
:10305C004E4600E47A08F0A3DAFC7B00740722C029
:10306C0083C082ECC0E0EDC0E0EEC0E0EFC0E0EA6F
:10307C0075F010A4CAABF075F04DA42BFBE435F041
:10308C00FCEA2410FAEB34C5FBEC34D9FCEDC2E7B6
:10309C00FF75F056A4F42411C5F0F434C58FF0A4D8
:1030AC002AE5F03BE43CF020E714123161D0E0FF5C
:1030BC00D0E0FED0E0FDD0E0FC122E268014F4040B
:1030CC00123161D0E0FFD0E0FED0E0FDD0E0FC1288
:1030DC002D1DD082D083E0FAEDD2E7CD33EC332432
:1030EC0082FBE4C3CF33CFCE33CECD33CD33DBF342
:1030FC007B0775F00A846004F0A31B0AE5F0F0A3CB
:10310C008FF0740AA4FFACF08EF0740AA42CFEAC01
:10311C00F050010C8DF0740AA42CFDE435F0F0A3F2
:05312C00DBDE74072248
:103131003F8000004120000042C80000447A0000A6
:10314100461C400047C35000497424004B18968028
:103151004CBEBC205A0E1BCA6753C21C749DC5AE1F
:10316100FB60065407601C232312318FEB54386037
:103171000912317B12318A122D1DECF8EDF9EEFAAC
:10318100EFCB22EB12318A80F1543803241C9031A9
:1031910031FE93FC0EEE93FD0EEE930ECE93FF22C5
:103B3000023C5FE493A3F8E493A34003F68001F210
:103B400008DFF48029E493A3F85407240CC8C33396
:103B5000C4540F4420C8834004F456800146F6DF65
:103B6000E4800B0102040810204080903CE4E47ED5
:103B7000019360BCA3FF543F30E509541FFEE4935A
:103B8000A360010ECF54C025E060A840B8E493A321
:103B9000FAE493A3F8E493A3C8C582C8CAC583CA4C
:103BA000F0A3C8C582C8CAC583CADFE9DEE780BE04
:013D1C0000A6
:1031A100E709F608DFFA8046E709F208DFFA803E10
:1031B10088828C83E709F0A3DFFA8032E309F608FD
:1031C100DFFA8078E309F208DFFA807088828C8365
:1031D100E309F0A3DFFA806489828A83E0A3F60819
:1031E100DFFA805889828A83E0A3F208DFFA804CF3
:1031F10080D280FA80C680D4806980F280338010CA
:1032010080A680EA809A80A880DA80E280CA803332
:1032110089828A83ECFAE493A3C8C582C8CCC583AA
:10322100CCF0A3C8C582C8CCC583CCDFE9DEE7807A
:103231000D89828A83E493A3F608DFF9ECFAA9F0F9
:10324100EDFB2289828A83ECFAE0A3C8C582C8CC4F
:10325100C583CCF0A3C8C582C8CCC583CCDFEADE68
:10326100E880DB89828A83E493A3F208DFF980CCCA
:1032710088F0EF60010E4E60C388F0ED2402B404C3
:103281000050B9F582EB2402B4040050AF2323456A
:0632910082239031F1736D
:10329700BB010689828A83E0225002E722BBFE0235
:0932A700E32289828A83E4932268
:1032B000BB010CE58229F582E5833AF583E02250D3
:1032C00006E92582F8E622BBFE06E92582F8E2221D
:0D32D000E58229F582E5833AF583E4932237
:1032DD00BB010689828A83F0225002F722BBFE01D0
:0232ED00F322CA
:1032EF00C5F0F8A3E028F0C5F0F8E582158270026A
:0632FF001583E038F02207
:0E330500C3E49FFFE49EFEE49DFDE49CFC22D9
:0C331300ECF0A3EDF0A3EEF0A3EFF0222D
:10331F00A8828583F0D083D08212333612333612CF
:10332F003336123336E473E493A3C583C5F0C583F4
:10333F00C8C582C8F0A3C583C5F0C583C8C582C8F8
:01334F00225B
:10335000F8E0FBA3A3E0F925F0F0E5821582700206
:073360001583E0FA38F022AA
:09336700EBF0A3EAF0A3E9F02267
:10337000D083D082F8E4937012740193700DA3A3EC
:1033800093F8740193F5828883E473740293686000
:06339000EFA3A3A380DF00
:103D4700EFB40A07740D123D52740A309811A899FE
:103D5700B8130CC2983098FDA899C298B811F630DC
:073D670099FDC299F59922B4
:103D8700E4FFFE123297600C0FEF70010E09E97025
:053D9700F20A80EF229A
:10339600EF4E6012EF60010EEDBB010B89828A834E
:1033A600F0A3DFFCDEFA2289F05007F709DFFCA95B
:0C33B600F022BBFEFCF309DFFCA9F022B2
:00000001FF
